:020000040000FA
:060000008A110A12982883
:08000800F000030EF1000A08EC
:10001000F200831603130C1E2028831203130C1EF8
:100020002028770803191B2800088312031399005E
:10003000840AF70320287410831603130C12202857
:10004000710E8300F00E700E72088A000900713084
:10005000831603138F00073083160313810030309B
:1000600083120313900002308312031392000C30AA
:100070008312031397004030831203138500FF306F
:100080008316031788003F308316031385008316F9
:10009000031789012030831203138600DF30831693
:1000A000031386001F30831603139500060883127E
:1000B00003130B100F3083160313960083120313E0
:1000C0008B15831203138701FB30831603138700FC
:1000D000831203138801F030831603138800831200
:1000E000031389019930831203139F0083160313AE
:1000F0009F0124308316031398009030831203135A
:10010000980083160317870119308316031399008B
:1001100043308316031392000310120C831203134F
:0C01200095000C308312031397000800B8
:04012C000034003467
:100130008A110A122720F401831203130B1783126A
:1001400003139A018B138316031787148316031363
:100150008C168312031308106300831203131A080A
:10016000831603138C128B17831203130814831244
:1001700003138C1EB928831203131A08F300CF3E11
:10018000F5007308C63EF60075087602031CDD28EC
:1001900030307302F8008430831203138E006D3008
:1001A000831203138F00831203130C1012150921FD
:1001B00012110921F80BCB280129831203139A018C
:1001C00083120313A001831203134E30A0004F309B
:1001D000A1005430A2002030A3005630A4004130CA
:1001E000A5004C30A6004930A7004430A8000A30D2
:1001F000A9000A3010217418FB2883160313981CD9
:10020000FF28F301831203139A01831603138C163C
:100210009F288312031310140C100C1C0D290800C6
:10022000F7008313203084007414831603130C1614
:020230000800C4
:02400E00F42F8D
:02401000FF3E71
:00000001FF
